{
  "contractName": "CryptoColors",
  "abi": [
    {
      "constant": true,
      "inputs": [
        {
          "name": "",
          "type": "address"
        },
        {
          "name": "",
          "type": "uint256"
        }
      ],
      "name": "people",
      "outputs": [
        {
          "name": "",
          "type": "uint256"
        }
      ],
      "payable": false,
      "stateMutability": "view",
      "type": "function"
    },
    {
      "constant": true,
      "inputs": [],
      "name": "name",
      "outputs": [
        {
          "name": "",
          "type": "string"
        }
      ],
      "payable": false,
      "stateMutability": "view",
      "type": "function"
    },
    {
      "constant": false,
      "inputs": [
        {
          "name": "spender",
          "type": "address"
        },
        {
          "name": "tokens",
          "type": "uint256"
        }
      ],
      "name": "approve",
      "outputs": [
        {
          "name": "",
          "type": "bool"
        }
      ],
      "payable": false,
      "stateMutability": "nonpayable",
      "type": "function"
    },
    {
      "constant": true,
      "inputs": [],
      "name": "totalSupply",
      "outputs": [
        {
          "name": "",
          "type": "uint256"
        }
      ],
      "payable": false,
      "stateMutability": "view",
      "type": "function"
    },
    {
      "constant": false,
      "inputs": [
        {
          "name": "from",
          "type": "address"
        },
        {
          "name": "to",
          "type": "address"
        },
        {
          "name": "tokens",
          "type": "uint256"
        }
      ],
      "name": "transferFrom",
      "outputs": [
        {
          "name": "",
          "type": "bool"
        }
      ],
      "payable": false,
      "stateMutability": "nonpayable",
      "type": "function"
    },
    {
      "constant": true,
      "inputs": [],
      "name": "decimals",
      "outputs": [
        {
          "name": "",
          "type": "uint8"
        }
      ],
      "payable": false,
      "stateMutability": "view",
      "type": "function"
    },
    {
      "constant": true,
      "inputs": [],
      "name": "colorsCount",
      "outputs": [
        {
          "name": "",
          "type": "uint256"
        }
      ],
      "payable": false,
      "stateMutability": "view",
      "type": "function"
    },
    {
      "constant": true,
      "inputs": [],
      "name": "_totalSupply",
      "outputs": [
        {
          "name": "",
          "type": "uint256"
        }
      ],
      "payable": false,
      "stateMutability": "view",
      "type": "function"
    },
    {
      "constant": true,
      "inputs": [
        {
          "name": "",
          "type": "address"
        },
        {
          "name": "",
          "type": "address"
        }
      ],
      "name": "allowed",
      "outputs": [
        {
          "name": "",
          "type": "uint256"
        }
      ],
      "payable": false,
      "stateMutability": "view",
      "type": "function"
    },
    {
      "constant": true,
      "inputs": [
        {
          "name": "tokenOwner",
          "type": "address"
        }
      ],
      "name": "balanceOf",
      "outputs": [
        {
          "name": "",
          "type": "uint256"
        }
      ],
      "payable": false,
      "stateMutability": "view",
      "type": "function"
    },
    {
      "constant": true,
      "inputs": [],
      "name": "symbol",
      "outputs": [
        {
          "name": "",
          "type": "string"
        }
      ],
      "payable": false,
      "stateMutability": "view",
      "type": "function"
    },
    {
      "constant": false,
      "inputs": [
        {
          "name": "to",
          "type": "address"
        },
        {
          "name": "tokens",
          "type": "uint256"
        }
      ],
      "name": "transfer",
      "outputs": [
        {
          "name": "",
          "type": "bool"
        }
      ],
      "payable": false,
      "stateMutability": "nonpayable",
      "type": "function"
    },
    {
      "constant": true,
      "inputs": [],
      "name": "tokensLeft",
      "outputs": [
        {
          "name": "",
          "type": "uint256"
        }
      ],
      "payable": false,
      "stateMutability": "view",
      "type": "function"
    },
    {
      "constant": true,
      "inputs": [
        {
          "name": "",
          "type": "uint256"
        }
      ],
      "name": "colors",
      "outputs": [
        {
          "name": "owner",
          "type": "address"
        },
        {
          "name": "price",
          "type": "uint256"
        },
        {
          "name": "color",
          "type": "string"
        },
        {
          "name": "bought",
          "type": "bool"
        }
      ],
      "payable": false,
      "stateMutability": "view",
      "type": "function"
    },
    {
      "constant": false,
      "inputs": [],
      "name": "buyTokens",
      "outputs": [],
      "payable": true,
      "stateMutability": "payable",
      "type": "function"
    },
    {
      "constant": true,
      "inputs": [],
      "name": "mainPerson",
      "outputs": [
        {
          "name": "",
          "type": "address"
        }
      ],
      "payable": false,
      "stateMutability": "view",
      "type": "function"
    },
    {
      "constant": true,
      "inputs": [
        {
          "name": "tokenOwner",
          "type": "address"
        },
        {
          "name": "spender",
          "type": "address"
        }
      ],
      "name": "allowance",
      "outputs": [
        {
          "name": "",
          "type": "uint256"
        }
      ],
      "payable": false,
      "stateMutability": "view",
      "type": "function"
    },
    {
      "constant": true,
      "inputs": [
        {
          "name": "",
          "type": "address"
        }
      ],
      "name": "peopleItemsCount",
      "outputs": [
        {
          "name": "",
          "type": "uint256"
        }
      ],
      "payable": false,
      "stateMutability": "view",
      "type": "function"
    },
    {
      "inputs": [
        {
          "name": "_name",
          "type": "string"
        },
        {
          "name": "_symbol",
          "type": "string"
        },
        {
          "name": "_decimals",
          "type": "uint8"
        },
        {
          "name": "_totalSupply",
          "type": "uint256"
        }
      ],
      "payable": false,
      "stateMutability": "nonpayable",
      "type": "constructor"
    },
    {
      "anonymous": false,
      "inputs": [
        {
          "indexed": true,
          "name": "_from",
          "type": "address"
        },
        {
          "indexed": true,
          "name": "_to",
          "type": "address"
        },
        {
          "indexed": false,
          "name": "_value",
          "type": "uint256"
        }
      ],
      "name": "Transfer",
      "type": "event"
    },
    {
      "anonymous": false,
      "inputs": [
        {
          "indexed": true,
          "name": "_owner",
          "type": "address"
        },
        {
          "indexed": true,
          "name": "_spender",
          "type": "address"
        },
        {
          "indexed": false,
          "name": "_value",
          "type": "uint256"
        }
      ],
      "name": "Approval",
      "type": "event"
    },
    {
      "constant": false,
      "inputs": [
        {
          "name": "_color",
          "type": "string"
        },
        {
          "name": "_price",
          "type": "uint256"
        }
      ],
      "name": "addColor",
      "outputs": [],
      "payable": false,
      "stateMutability": "nonpayable",
      "type": "function"
    },
    {
      "constant": false,
      "inputs": [
        {
          "name": "_id",
          "type": "uint256"
        },
        {
          "name": "_price",
          "type": "uint256"
        }
      ],
      "name": "sellColor",
      "outputs": [],
      "payable": false,
      "stateMutability": "nonpayable",
      "type": "function"
    },
    {
      "constant": false,
      "inputs": [
        {
          "name": "_id",
          "type": "uint256"
        }
      ],
      "name": "buyColor",
      "outputs": [],
      "payable": false,
      "stateMutability": "nonpayable",
      "type": "function"
    },
    {
      "constant": true,
      "inputs": [],
      "name": "getTime",
      "outputs": [
        {
          "name": "",
          "type": "uint256"
        }
      ],
      "payable": false,
      "stateMutability": "view",
      "type": "function"
    }
  ],
  "bytecode": "0x6080604052426008553480156200001557600080fd5b5060405162001ed338038062001ed3833981018060405260808110156200003b57600080fd5b8101908080516401000000008111156200005457600080fd5b828101905060208101848111156200006b57600080fd5b81518560018202830111640100000000821117156200008957600080fd5b50509291906020018051640100000000811115620000a657600080fd5b82810190506020810184811115620000bd57600080fd5b8151856001820283011164010000000082111715620000db57600080fd5b505092919060200180519060200190929190805190602001909291905050508383838383600490805190602001906200011692919062000479565b5082600590805190602001906200012f92919062000479565b5081600660006101000a81548160ff021916908360ff1602179055508160ff16600a0a6007819055506007548102600281905550600a600254816200017057fe5b046000803373ffffffffffffffffffffffffffffffffffffffff1673ffffffffffffffffffffffffffffffffffffffff168152602001908152602001600020819055506000803373ffffffffffffffffffffffffffffffffffffffff1673ffffffffffffffffffffffffffffffffffffffff16815260200190815260200160002054600254036003819055505050505033600c60006101000a81548173ffffffffffffffffffffffffffffffffffffffff021916908373ffffffffffffffffffffffffffffffffffffffff160217905550620002906040518060400160405280600381526020017f526564000000000000000000000000000000000000000000000000000000000081525067016345785d8a00006200033860201b60201c565b620002df6040518060400160405280600581526020017f477265656e00000000000000000000000000000000000000000000000000000081525067016345785d8a00006200033860201b60201c565b6200032e6040518060400160405280600481526020017f426c75650000000000000000000000000000000000000000000000000000000081525067016345785d8a00006200033860201b60201c565b5050505062000528565b60008251116200034757600080fd5b600081116200035557600080fd5b6008544210156200036557600080fd5b600c60009054906101000a900473ffffffffffffffffffffffffffffffffffffffff1673ffffffffffffffffffffffffffffffffffffffff163373ffffffffffffffffffffffffffffffffffffffff1614620003c057600080fd5b80600b600060095481526020019081526020016000206001018190555081600b6000600954815260200190815260200160002060020190805190602001906200040b92919062000479565b5033600b6000600954815260200190815260200160002060000160006101000a81548173ffffffffffffffffffffffffffffffffffffffff021916908373ffffffffffffffffffffffffffffffffffffffff1602179055506009600081548092919060010191905055505050565b828054600181600116156101000203166002900490600052602060002090601f016020900481019282601f10620004bc57805160ff1916838001178555620004ed565b82800160010185558215620004ed579182015b82811115620004ec578251825591602001919060010190620004cf565b5b509050620004fc919062000500565b5090565b6200052591905b808211156200052157600081600090555060010162000507565b5090565b90565b61199b80620005386000396000f3fe6080604052600436106101355760003560e01c806395d89b41116100ab578063d0febe4c1161006f578063d0febe4c14610772578063d16f822a1461077c578063dd62ed3e146107d3578063e29d769d14610858578063f121da251461092a578063f30e45771461096557610135565b806395d89b4114610506578063a061986914610596578063a9059cbb146105db578063b31f8f931461064e578063bd11f69d1461067957610135565b8063313ce567116100fd578063313ce5671461036a578063356edf741461039b5780633eaaf86b146103c6578063557ed1ba146103f15780635c6581651461041c57806370a08231146104a157610135565b806302731b831461013a57806306fdde03146101a9578063095ea7b31461023957806318160ddd146102ac57806323b872dd146102d7575b600080fd5b34801561014657600080fd5b506101936004803603604081101561015d57600080fd5b81019080803573ffffffffffffffffffffffffffffffffffffffff169060200190929190803590602001909291905050506109ca565b6040518082815260200191505060405180910390f35b3480156101b557600080fd5b506101be6109f8565b6040518080602001828103825283818151815260200191508051906020019080838360005b838110156101fe5780820151818401526020810190506101e3565b50505050905090810190601f16801561022b5780820380516001836020036101000a031916815260200191505b509250505060405180910390f35b34801561024557600080fd5b506102926004803603604081101561025c57600080fd5b81019080803573ffffffffffffffffffffffffffffffffffffffff16906020019092919080359060200190929190505050610a96565b604051808215151515815260200191505060405180910390f35b3480156102b857600080fd5b506102c1610b88565b6040518082815260200191505060405180910390f35b3480156102e357600080fd5b50610350600480360360608110156102fa57600080fd5b81019080803573ffffffffffffffffffffffffffffffffffffffff169060200190929190803573ffffffffffffffffffffffffffffffffffffffff16906020019092919080359060200190929190505050610b92565b604051808215151515815260200191505060405180910390f35b34801561037657600080fd5b5061037f610dfa565b604051808260ff1660ff16815260200191505060405180910390f35b3480156103a757600080fd5b506103b0610e0d565b6040518082815260200191505060405180910390f35b3480156103d257600080fd5b506103db610e13565b6040518082815260200191505060405180910390f35b3480156103fd57600080fd5b50610406610e19565b6040518082815260200191505060405180910390f35b34801561042857600080fd5b5061048b6004803603604081101561043f57600080fd5b81019080803573ffffffffffffffffffffffffffffffffffffffff169060200190929190803573ffffffffffffffffffffffffffffffffffffffff169060200190929190505050610e25565b6040518082815260200191505060405180910390f35b3480156104ad57600080fd5b506104f0600480360360208110156104c457600080fd5b81019080803573ffffffffffffffffffffffffffffffffffffffff169060200190929190505050610e4a565b6040518082815260200191505060405180910390f35b34801561051257600080fd5b5061051b610e92565b6040518080602001828103825283818151815260200191508051906020019080838360005b8381101561055b578082015181840152602081019050610540565b50505050905090810190601f1680156105885780820380516001836020036101000a031916815260200191505b509250505060405180910390f35b3480156105a257600080fd5b506105d9600480360360408110156105b957600080fd5b810190808035906020019092919080359060200190929190505050610f30565b005b3480156105e757600080fd5b50610634600480360360408110156105fe57600080fd5b81019080803573ffffffffffffffffffffffffffffffffffffffff16906020019092919080359060200190929190505050611143565b604051808215151515815260200191505060405180910390f35b34801561065a57600080fd5b50610663611297565b6040518082815260200191505060405180910390f35b34801561068557600080fd5b506106b26004803603602081101561069c57600080fd5b810190808035906020019092919050505061129d565b604051808573ffffffffffffffffffffffffffffffffffffffff1673ffffffffffffffffffffffffffffffffffffffff1681526020018481526020018060200183151515158152602001828103825284818151815260200191508051906020019080838360005b83811015610734578082015181840152602081019050610719565b50505050905090810190601f1680156107615780820380516001836020036101000a031916815260200191505b509550505050505060405180910390f35b61077a611392565b005b34801561078857600080fd5b5061079161141a565b604051808273ffffffffffffffffffffffffffffffffffffffff1673ffffffffffffffffffffffffffffffffffffffff16815260200191505060405180910390f35b3480156107df57600080fd5b50610842600480360360408110156107f657600080fd5b81019080803573ffffffffffffffffffffffffffffffffffffffff169060200190929190803573ffffffffffffffffffffffffffffffffffffffff169060200190929190505050611440565b6040518082815260200191505060405180910390f35b34801561086457600080fd5b506109286004803603604081101561087b57600080fd5b810190808035906020019064010000000081111561089857600080fd5b8201836020820111156108aa57600080fd5b803590602001918460018302840111640100000000831117156108cc57600080fd5b91908080601f016020809104026020016040519081016040528093929190818152602001838380828437600081840152601f19601f820116905080830192505050505050509192919290803590602001909291905050506114c7565b005b34801561093657600080fd5b506109636004803603602081101561094d57600080fd5b8101908080359060200190929190505050611602565b005b34801561097157600080fd5b506109b46004803603602081101561098857600080fd5b81019080803573ffffffffffffffffffffffffffffffffffffffff1690602001909291905050506118b2565b6040518082815260200191505060405180910390f35b600d60205281600052604060002081815481106109e357fe5b90600052602060002001600091509150505481565b60048054600181600116156101000203166002900480601f016020809104026020016040519081016040528092919081815260200182805460018160011615610100020316600290048015610a8e5780601f10610a6357610100808354040283529160200191610a8e565b820191906000526020600020905b815481529060010190602001808311610a7157829003601f168201915b505050505081565b600081600160003373ffffffffffffffffffffffffffffffffffffffff1673ffffffffffffffffffffffffffffffffffffffff16815260200190815260200160002060008573ffffffffffffffffffffffffffffffffffffffff1673ffffffffffffffffffffffffffffffffffffffff168152602001908152602001600020819055508273ffffffffffffffffffffffffffffffffffffffff163373ffffffffffffffffffffffffffffffffffffffff167f8c5be1e5ebec7d5bd14f71427d1e84f3dd0314c0f7b2291e5b200ac8c7c3b925846040518082815260200191505060405180910390a36001905092915050565b6000600254905090565b6000816000808673ffffffffffffffffffffffffffffffffffffffff1673ffffffffffffffffffffffffffffffffffffffff168152602001908152602001600020541015610bdf57600080fd5b81600160008673ffffffffffffffffffffffffffffffffffffffff1673ffffffffffffffffffffffffffffffffffffffff16815260200190815260200160002060003373ffffffffffffffffffffffffffffffffffffffff1673ffffffffffffffffffffffffffffffffffffffff168152602001908152602001600020541015610c6857600080fd5b816000808673ffffffffffffffffffffffffffffffffffffffff1673ffffffffffffffffffffffffffffffffffffffff1681526020019081526020016000206000828254039250508190555081600160008673ffffffffffffffffffffffffffffffffffffffff1673ffffffffffffffffffffffffffffffffffffffff16815260200190815260200160002060003373ffffffffffffffffffffffffffffffffffffffff1673ffffffffffffffffffffffffffffffffffffffff16815260200190815260200160002060008282540392505081905550816000808573ffffffffffffffffffffffffffffffffffffffff1673ffffffffffffffffffffffffffffffffffffffff168152602001908152602001600020600082825401925050819055508273ffffffffffffffffffffffffffffffffffffffff168473ffffffffffffffffffffffffffffffffffffffff167fddf252ad1be2c89b69c2b068fc378daa952ba7f163c4a11628f55a4df523b3ef846040518082815260200191505060405180910390a3600190509392505050565b600660009054906101000a900460ff1681565b60095481565b60025481565b60004260085403905090565b6001602052816000526040600020602052806000526040600020600091509150505481565b60008060008373ffffffffffffffffffffffffffffffffffffffff1673ffffffffffffffffffffffffffffffffffffffff168152602001908152602001600020549050919050565b60058054600181600116156101000203166002900480601f016020809104026020016040519081016040528092919081815260200182805460018160011615610100020316600290048015610f285780601f10610efd57610100808354040283529160200191610f28565b820191906000526020600020905b815481529060010190602001808311610f0b57829003601f168201915b505050505081565b3373ffffffffffffffffffffffffffffffffffffffff16600b6000600d60003373ffffffffffffffffffffffffffffffffffffffff1673ffffffffffffffffffffffffffffffffffffffff1681526020019081526020016000208581548110610f9557fe5b9060005260206000200154815260200190815260200160002060000160009054906101000a900473ffffffffffffffffffffffffffffffffffffffff1673ffffffffffffffffffffffffffffffffffffffff1614610ff257600080fd5b80600b6000600d60003373ffffffffffffffffffffffffffffffffffffffff1673ffffffffffffffffffffffffffffffffffffffff168152602001908152602001600020858154811061104157fe5b90600052602060002001548152602001908152602001600020600101819055506000600b6000600d60003373ffffffffffffffffffffffffffffffffffffffff1673ffffffffffffffffffffffffffffffffffffffff16815260200190815260200160002085815481106110b157fe5b9060005260206000200154815260200190815260200160002060030160006101000a81548160ff0219169083151502179055506103e7600d60003373ffffffffffffffffffffffffffffffffffffffff1673ffffffffffffffffffffffffffffffffffffffff168152602001908152602001600020838154811061113157fe5b90600052602060002001819055505050565b60008060003373ffffffffffffffffffffffffffffffffffffffff1673ffffffffffffffffffffffffffffffffffffffff1681526020019081526020016000205482111561119057600080fd5b816000808573ffffffffffffffffffffffffffffffffffffffff1673ffffffffffffffffffffffffffffffffffffffff16815260200190815260200160002060008282540192505081905550816000803373ffffffffffffffffffffffffffffffffffffffff1673ffffffffffffffffffffffffffffffffffffffff168152602001908152602001600020600082825403925050819055508273ffffffffffffffffffffffffffffffffffffffff163373ffffffffffffffffffffffffffffffffffffffff167fddf252ad1be2c89b69c2b068fc378daa952ba7f163c4a11628f55a4df523b3ef846040518082815260200191505060405180910390a36001905092915050565b60035481565b600b6020528060005260406000206000915090508060000160009054906101000a900473ffffffffffffffffffffffffffffffffffffffff1690806001015490806002018054600181600116156101000203166002900480601f0160208091040260200160405190810160405280929190818152602001828054600181600116156101000203166002900480156113755780601f1061134a57610100808354040283529160200191611375565b820191906000526020600020905b81548152906001019060200180831161135857829003601f168201915b5050505050908060030160009054906101000a900460ff16905084565b6000341161139f57600080fd5b34600360008282540392505081905560035410156113bc57600080fd5b346000803373ffffffffffffffffffffffffffffffffffffffff1673ffffffffffffffffffffffffffffffffffffffff1681526020019081526020016000206000828254019250508190555034600360008282540392505081905550565b600c60009054906101000a900473ffffffffffffffffffffffffffffffffffffffff1681565b6000600160008473ffffffffffffffffffffffffffffffffffffffff1673ffffffffffffffffffffffffffffffffffffffff16815260200190815260200160002060008373ffffffffffffffffffffffffffffffffffffffff1673ffffffffffffffffffffffffffffffffffffffff16815260200190815260200160002054905092915050565b60008251116114d557600080fd5b600081116114e257600080fd5b6008544210156114f157600080fd5b600c60009054906101000a900473ffffffffffffffffffffffffffffffffffffffff1673ffffffffffffffffffffffffffffffffffffffff163373ffffffffffffffffffffffffffffffffffffffff161461154b57600080fd5b80600b600060095481526020019081526020016000206001018190555081600b6000600954815260200190815260200160002060020190805190602001906115949291906118ca565b5033600b6000600954815260200190815260200160002060000160006101000a81548173ffffffffffffffffffffffffffffffffffffffff021916908373ffffffffffffffffffffffffffffffffffffffff1602179055506009600081548092919060010191905055505050565b3373ffffffffffffffffffffffffffffffffffffffff16600b600083815260200190815260200160002060000160009054906101000a900473ffffffffffffffffffffffffffffffffffffffff1673ffffffffffffffffffffffffffffffffffffffff16141561167157600080fd5b6009548111158015611684575060008110155b61168d57600080fd5b600b600082815260200190815260200160002060030160009054906101000a900460ff16156116bb57600080fd5b600b6000828152602001908152602001600020600101546000803373ffffffffffffffffffffffffffffffffffffffff1673ffffffffffffffffffffffffffffffffffffffff16815260200190815260200160002054101561171c57600080fd5b611772600b600083815260200190815260200160002060000160009054906101000a900473ffffffffffffffffffffffffffffffffffffffff16600b600084815260200190815260200160002060010154611143565b50600d60003373ffffffffffffffffffffffffffffffffffffffff1673ffffffffffffffffffffffffffffffffffffffff1681526020019081526020016000208190806001815401808255809150509060018203906000526020600020016000909192909190915055506001600b600083815260200190815260200160002060030160006101000a81548160ff02191690831515021790555033600b600083815260200190815260200160002060000160006101000a81548173ffffffffffffffffffffffffffffffffffffffff021916908373ffffffffffffffffffffffffffffffffffffffff160217905550600a60003373ffffffffffffffffffffffffffffffffffffffff1673ffffffffffffffffffffffffffffffffffffffff1681526020019081526020016000206000815480929190600101919050555050565b600a6020528060005260406000206000915090505481565b828054600181600116156101000203166002900490600052602060002090601f016020900481019282601f1061190b57805160ff1916838001178555611939565b82800160010185558215611939579182015b8281111561193857825182559160200191906001019061191d565b5b509050611946919061194a565b5090565b61196c91905b80821115611968576000816000905550600101611950565b5090565b9056fea165627a7a723058208862e8bf739a38c392b0b39c97571fdf39c3e4fc510304600f9a84aa1f5128130029",
  "source": "pragma solidity ^0.5.8;\r\nimport \"./Token.sol\";   //Contract with ERC-20 standard\r\n\r\ncontract CryptoColors is Token{\r\n    uint time = block.timestamp;\r\n    uint public colorsCount;\r\n    //List of added but not bought colors\r\n    struct FreeColors{\r\n        address owner;\r\n        uint price;\r\n        string color;\r\n        bool bought;\r\n    }\r\n    mapping(address => uint) public peopleItemsCount; //Every person counter how much colors does he/she have\r\n    mapping(uint => FreeColors) public colors;\r\n    address payable public mainPerson;  //contract deployer\r\n    //Someone who wants to collect our colors\r\n\r\n    mapping(address => uint[]) public people;\r\n    //Function that allows main person to add new color to website (it can be done once a specified amount of time)\r\n    function addColor(string memory _color, uint _price) public {\r\n\r\n        require(bytes(_color).length>0);\r\n        require(_price>0);\r\n        require(block.timestamp>=time);\r\n        require(msg.sender == mainPerson);\r\n        colors[colorsCount].price = _price;\r\n        colors[colorsCount].color = _color;\r\n        colors[colorsCount].owner = msg.sender;\r\n        colorsCount++;\r\n    }\r\n    //Function that allows anyone who has colors to sell them (push them to the market)\r\n    function sellColor(uint _id, uint _price) public {\r\n        require(colors[people[msg.sender][_id]].owner == msg.sender);\r\n        colors[people[msg.sender][_id]].price = _price;\r\n        colors[people[msg.sender][_id]].bought = false;\r\n        people[msg.sender][_id] = 999;\r\n    }\r\n    //Function that allows anyone with a sufficient number of tokens to buy color (from the market)\r\n    function buyColor(uint _id) public {\r\n        require(colors[_id].owner != msg.sender);\r\n        require(_id<=colorsCount && _id>=0);\r\n        require(!colors[_id].bought);\r\n        require(balances[msg.sender]>=colors[_id].price);\r\n\r\n        transfer(colors[_id].owner, colors[_id].price);\r\n        people[msg.sender].push(_id);\r\n        colors[_id].bought = true;\r\n        colors[_id].owner = msg.sender;\r\n        peopleItemsCount[msg.sender]++;\r\n    }\r\n    //How much time left to new color add\r\n    function getTime() public view returns(uint) {\r\n        return time-block.timestamp;\r\n    }\r\n    constructor(\r\n        string memory _name,\r\n        string memory _symbol,\r\n        uint8 _decimals,\r\n        uint _totalSupply)\r\n    Token(_name, _symbol, _decimals, _totalSupply) public {\r\n        mainPerson=msg.sender;\r\n        addColor(\"Red\", 100000000000000000);\r\n        addColor(\"Green\", 100000000000000000);\r\n        addColor(\"Blue\", 100000000000000000);\r\n    }\r\n}\r\n",
  "sourcePath": "E:/Crypto-colors/src/contracts/CryptoColors.sol",
  "compiler": {
    "name": "solc",
    "version": "0.5.8+commit.23d335f2.Emscripten.clang"
  },
  "schemaVersion": "3.0.13",
  "updatedAt": "2019-10-19T11:34:35.539Z",
  "devdoc": {
    "methods": {}
  },
  "userdoc": {
    "methods": {}
  }
}