{
  "contractName": "CryptoColors",
  "abi": [
    {
      "constant": true,
      "inputs": [],
      "name": "name",
      "outputs": [
        {
          "name": "",
          "type": "string"
        }
      ],
      "payable": false,
      "stateMutability": "view",
      "type": "function"
    },
    {
      "constant": true,
      "inputs": [
        {
          "name": "",
          "type": "address"
        }
      ],
      "name": "people",
      "outputs": [
        {
          "name": "howMuch",
          "type": "uint256"
        }
      ],
      "payable": false,
      "stateMutability": "view",
      "type": "function"
    },
    {
      "constant": false,
      "inputs": [
        {
          "name": "spender",
          "type": "address"
        },
        {
          "name": "tokens",
          "type": "uint256"
        }
      ],
      "name": "approve",
      "outputs": [
        {
          "name": "",
          "type": "bool"
        }
      ],
      "payable": false,
      "stateMutability": "nonpayable",
      "type": "function"
    },
    {
      "constant": true,
      "inputs": [],
      "name": "totalSupply",
      "outputs": [
        {
          "name": "",
          "type": "uint256"
        }
      ],
      "payable": false,
      "stateMutability": "view",
      "type": "function"
    },
    {
      "constant": false,
      "inputs": [
        {
          "name": "from",
          "type": "address"
        },
        {
          "name": "to",
          "type": "address"
        },
        {
          "name": "tokens",
          "type": "uint256"
        }
      ],
      "name": "transferFrom",
      "outputs": [
        {
          "name": "",
          "type": "bool"
        }
      ],
      "payable": false,
      "stateMutability": "nonpayable",
      "type": "function"
    },
    {
      "constant": true,
      "inputs": [],
      "name": "decimals",
      "outputs": [
        {
          "name": "",
          "type": "uint8"
        }
      ],
      "payable": false,
      "stateMutability": "view",
      "type": "function"
    },
    {
      "constant": true,
      "inputs": [],
      "name": "colorsCount",
      "outputs": [
        {
          "name": "",
          "type": "uint256"
        }
      ],
      "payable": false,
      "stateMutability": "view",
      "type": "function"
    },
    {
      "constant": true,
      "inputs": [],
      "name": "_totalSupply",
      "outputs": [
        {
          "name": "",
          "type": "uint256"
        }
      ],
      "payable": false,
      "stateMutability": "view",
      "type": "function"
    },
    {
      "constant": true,
      "inputs": [
        {
          "name": "",
          "type": "address"
        },
        {
          "name": "",
          "type": "address"
        }
      ],
      "name": "allowed",
      "outputs": [
        {
          "name": "",
          "type": "uint256"
        }
      ],
      "payable": false,
      "stateMutability": "view",
      "type": "function"
    },
    {
      "constant": true,
      "inputs": [
        {
          "name": "tokenOwner",
          "type": "address"
        }
      ],
      "name": "balanceOf",
      "outputs": [
        {
          "name": "",
          "type": "uint256"
        }
      ],
      "payable": false,
      "stateMutability": "view",
      "type": "function"
    },
    {
      "constant": true,
      "inputs": [],
      "name": "symbol",
      "outputs": [
        {
          "name": "",
          "type": "string"
        }
      ],
      "payable": false,
      "stateMutability": "view",
      "type": "function"
    },
    {
      "constant": false,
      "inputs": [
        {
          "name": "to",
          "type": "address"
        },
        {
          "name": "tokens",
          "type": "uint256"
        }
      ],
      "name": "transfer",
      "outputs": [
        {
          "name": "",
          "type": "bool"
        }
      ],
      "payable": false,
      "stateMutability": "nonpayable",
      "type": "function"
    },
    {
      "constant": true,
      "inputs": [
        {
          "name": "",
          "type": "uint256"
        }
      ],
      "name": "colors",
      "outputs": [
        {
          "name": "price",
          "type": "uint256"
        },
        {
          "name": "color",
          "type": "string"
        },
        {
          "name": "bought",
          "type": "bool"
        }
      ],
      "payable": false,
      "stateMutability": "view",
      "type": "function"
    },
    {
      "constant": true,
      "inputs": [],
      "name": "mainPerson",
      "outputs": [
        {
          "name": "",
          "type": "address"
        }
      ],
      "payable": false,
      "stateMutability": "view",
      "type": "function"
    },
    {
      "constant": true,
      "inputs": [
        {
          "name": "tokenOwner",
          "type": "address"
        },
        {
          "name": "spender",
          "type": "address"
        }
      ],
      "name": "allowance",
      "outputs": [
        {
          "name": "",
          "type": "uint256"
        }
      ],
      "payable": false,
      "stateMutability": "view",
      "type": "function"
    },
    {
      "inputs": [
        {
          "name": "_name",
          "type": "string"
        },
        {
          "name": "_symbol",
          "type": "string"
        },
        {
          "name": "_decimals",
          "type": "uint8"
        },
        {
          "name": "_totalSupply",
          "type": "uint256"
        }
      ],
      "payable": false,
      "stateMutability": "nonpayable",
      "type": "constructor"
    },
    {
      "anonymous": false,
      "inputs": [
        {
          "indexed": true,
          "name": "_from",
          "type": "address"
        },
        {
          "indexed": true,
          "name": "_to",
          "type": "address"
        },
        {
          "indexed": false,
          "name": "_value",
          "type": "uint256"
        }
      ],
      "name": "Transfer",
      "type": "event"
    },
    {
      "anonymous": false,
      "inputs": [
        {
          "indexed": true,
          "name": "_owner",
          "type": "address"
        },
        {
          "indexed": true,
          "name": "_spender",
          "type": "address"
        },
        {
          "indexed": false,
          "name": "_value",
          "type": "uint256"
        }
      ],
      "name": "Approval",
      "type": "event"
    },
    {
      "constant": false,
      "inputs": [
        {
          "name": "_color",
          "type": "string"
        },
        {
          "name": "_price",
          "type": "uint256"
        }
      ],
      "name": "addColor",
      "outputs": [],
      "payable": false,
      "stateMutability": "nonpayable",
      "type": "function"
    },
    {
      "constant": false,
      "inputs": [
        {
          "name": "_id",
          "type": "uint256"
        },
        {
          "name": "_price",
          "type": "uint256"
        }
      ],
      "name": "sellColor",
      "outputs": [],
      "payable": false,
      "stateMutability": "nonpayable",
      "type": "function"
    },
    {
      "constant": false,
      "inputs": [
        {
          "name": "_id",
          "type": "uint256"
        }
      ],
      "name": "buyColor",
      "outputs": [],
      "payable": false,
      "stateMutability": "nonpayable",
      "type": "function"
    },
    {
      "constant": true,
      "inputs": [],
      "name": "getTime",
      "outputs": [
        {
          "name": "",
          "type": "uint256"
        }
      ],
      "payable": false,
      "stateMutability": "view",
      "type": "function"
    }
  ],
  "bytecode": "0x6080604052426007553480156200001557600080fd5b50604051620018eb380380620018eb833981018060405260808110156200003b57600080fd5b8101908080516401000000008111156200005457600080fd5b828101905060208101848111156200006b57600080fd5b81518560018202830111640100000000821117156200008957600080fd5b50509291906020018051640100000000811115620000a657600080fd5b82810190506020810184811115620000bd57600080fd5b8151856001820283011164010000000082111715620000db57600080fd5b505092919060200180519060200190929190805190602001909291905050508383838383600390805190602001906200011692919062000202565b5082600490805190602001906200012f92919062000202565b5081600560006101000a81548160ff021916908360ff1602179055508160ff16600a0a6006819055506006548102600281905550600a600254816200017057fe5b046000803373ffffffffffffffffffffffffffffffffffffffff1673ffffffffffffffffffffffffffffffffffffffff168152602001908152602001600020819055505050505033600a60006101000a81548173ffffffffffffffffffffffffffffffffffffffff021916908373ffffffffffffffffffffffffffffffffffffffff16021790555050505050620002b1565b828054600181600116156101000203166002900490600052602060002090601f016020900481019282601f106200024557805160ff191683800117855562000276565b8280016001018555821562000276579182015b828111156200027557825182559160200191906001019062000258565b5b50905062000285919062000289565b5090565b620002ae91905b80821115620002aa57600081600090555060010162000290565b5090565b90565b61162a80620002c16000396000f3fe608060405234801561001057600080fd5b50600436106101215760003560e01c80635c658165116100ad578063bd11f69d11610071578063bd11f69d1461057a578063d16f822a14610633578063dd62ed3e1461067d578063e29d769d146106f5578063f121da25146107ba57610121565b80635c6581651461038957806370a082311461040157806395d89b4114610459578063a0619869146104dc578063a9059cbb1461051457610121565b806323b872dd116100f457806323b872dd14610285578063313ce5671461030b578063356edf741461032f5780633eaaf86b1461034d578063557ed1ba1461036b57610121565b806306fdde031461012657806307de9735146101a9578063095ea7b31461020157806318160ddd14610267575b600080fd5b61012e6107e8565b6040518080602001828103825283818151815260200191508051906020019080838360005b8381101561016e578082015181840152602081019050610153565b50505050905090810190601f16801561019b5780820380516001836020036101000a031916815260200191505b509250505060405180910390f35b6101eb600480360360208110156101bf57600080fd5b81019080803573ffffffffffffffffffffffffffffffffffffffff169060200190929190505050610886565b6040518082815260200191505060405180910390f35b61024d6004803603604081101561021757600080fd5b81019080803573ffffffffffffffffffffffffffffffffffffffff169060200190929190803590602001909291905050506108a4565b604051808215151515815260200191505060405180910390f35b61026f610996565b6040518082815260200191505060405180910390f35b6102f16004803603606081101561029b57600080fd5b81019080803573ffffffffffffffffffffffffffffffffffffffff169060200190929190803573ffffffffffffffffffffffffffffffffffffffff169060200190929190803590602001909291905050506109a0565b604051808215151515815260200191505060405180910390f35b610313610c08565b604051808260ff1660ff16815260200191505060405180910390f35b610337610c1b565b6040518082815260200191505060405180910390f35b610355610c21565b6040518082815260200191505060405180910390f35b610373610c27565b6040518082815260200191505060405180910390f35b6103eb6004803603604081101561039f57600080fd5b81019080803573ffffffffffffffffffffffffffffffffffffffff169060200190929190803573ffffffffffffffffffffffffffffffffffffffff169060200190929190505050610c33565b6040518082815260200191505060405180910390f35b6104436004803603602081101561041757600080fd5b81019080803573ffffffffffffffffffffffffffffffffffffffff169060200190929190505050610c58565b6040518082815260200191505060405180910390f35b610461610ca0565b6040518080602001828103825283818151815260200191508051906020019080838360005b838110156104a1578082015181840152602081019050610486565b50505050905090810190601f1680156104ce5780820380516001836020036101000a031916815260200191505b509250505060405180910390f35b610512600480360360408110156104f257600080fd5b810190808035906020019092919080359060200190929190505050610d3e565b005b6105606004803603604081101561052a57600080fd5b81019080803573ffffffffffffffffffffffffffffffffffffffff16906020019092919080359060200190929190505050610ec9565b604051808215151515815260200191505060405180910390f35b6105a66004803603602081101561059057600080fd5b810190808035906020019092919050505061101d565b604051808481526020018060200183151515158152602001828103825284818151815260200191508051906020019080838360005b838110156105f65780820151818401526020810190506105db565b50505050905090810190601f1680156106235780820380516001836020036101000a031916815260200191505b5094505050505060405180910390f35b61063b6110ec565b604051808273ffffffffffffffffffffffffffffffffffffffff1673ffffffffffffffffffffffffffffffffffffffff16815260200191505060405180910390f35b6106df6004803603604081101561069357600080fd5b81019080803573ffffffffffffffffffffffffffffffffffffffff169060200190929190803573ffffffffffffffffffffffffffffffffffffffff169060200190929190505050611112565b6040518082815260200191505060405180910390f35b6107b86004803603604081101561070b57600080fd5b810190808035906020019064010000000081111561072857600080fd5b82018360208201111561073a57600080fd5b8035906020019184600183028401116401000000008311171561075c57600080fd5b91908080601f016020809104026020016040519081016040528093929190818152602001838380828437600081840152601f19601f82011690508083019250505050505050919291929080359060200190929190505050611199565b005b6107e6600480360360208110156107d057600080fd5b8101908080359060200190929190505050611275565b005b60038054600181600116156101000203166002900480601f01602080910402602001604051908101604052809291908181526020018280546001816001161561010002031660029004801561087e5780601f106108535761010080835404028352916020019161087e565b820191906000526020600020905b81548152906001019060200180831161086157829003601f168201915b505050505081565b600b6020528060005260406000206000915090508060000154905081565b600081600160003373ffffffffffffffffffffffffffffffffffffffff1673ffffffffffffffffffffffffffffffffffffffff16815260200190815260200160002060008573ffffffffffffffffffffffffffffffffffffffff1673ffffffffffffffffffffffffffffffffffffffff168152602001908152602001600020819055508273ffffffffffffffffffffffffffffffffffffffff163373ffffffffffffffffffffffffffffffffffffffff167f8c5be1e5ebec7d5bd14f71427d1e84f3dd0314c0f7b2291e5b200ac8c7c3b925846040518082815260200191505060405180910390a36001905092915050565b6000600654905090565b6000816000808673ffffffffffffffffffffffffffffffffffffffff1673ffffffffffffffffffffffffffffffffffffffff1681526020019081526020016000205410156109ed57600080fd5b81600160008673ffffffffffffffffffffffffffffffffffffffff1673ffffffffffffffffffffffffffffffffffffffff16815260200190815260200160002060003373ffffffffffffffffffffffffffffffffffffffff1673ffffffffffffffffffffffffffffffffffffffff168152602001908152602001600020541015610a7657600080fd5b816000808673ffffffffffffffffffffffffffffffffffffffff1673ffffffffffffffffffffffffffffffffffffffff1681526020019081526020016000206000828254039250508190555081600160008673ffffffffffffffffffffffffffffffffffffffff1673ffffffffffffffffffffffffffffffffffffffff16815260200190815260200160002060003373ffffffffffffffffffffffffffffffffffffffff1673ffffffffffffffffffffffffffffffffffffffff16815260200190815260200160002060008282540392505081905550816000808573ffffffffffffffffffffffffffffffffffffffff1673ffffffffffffffffffffffffffffffffffffffff168152602001908152602001600020600082825401925050819055508273ffffffffffffffffffffffffffffffffffffffff168473ffffffffffffffffffffffffffffffffffffffff167fddf252ad1be2c89b69c2b068fc378daa952ba7f163c4a11628f55a4df523b3ef846040518082815260200191505060405180910390a3600190509392505050565b600560009054906101000a900460ff1681565b60085481565b60025481565b60004260075403905090565b6001602052816000526040600020602052806000526040600020600091509150505481565b60008060008373ffffffffffffffffffffffffffffffffffffffff1673ffffffffffffffffffffffffffffffffffffffff168152602001908152602001600020549050919050565b60048054600181600116156101000203166002900480601f016020809104026020016040519081016040528092919081815260200182805460018160011615610100020316600290048015610d365780601f10610d0b57610100808354040283529160200191610d36565b820191906000526020600020905b815481529060010190602001808311610d1957829003601f168201915b505050505081565b6000600b60003373ffffffffffffffffffffffffffffffffffffffff1673ffffffffffffffffffffffffffffffffffffffff1681526020019081526020016000206001018381548110610d8d57fe5b9060005260206000200180546001816001161561010002031660029004905011610db657600080fd5b8060096000600854815260200190815260200160002060000181905550600b60003373ffffffffffffffffffffffffffffffffffffffff1673ffffffffffffffffffffffffffffffffffffffff1681526020019081526020016000206001018281548110610e2057fe5b906000526020600020016009600060085481526020019081526020016000206001019080546001816001161561010002031660029004610e6192919061148a565b50600b60003373ffffffffffffffffffffffffffffffffffffffff1673ffffffffffffffffffffffffffffffffffffffff1681526020019081526020016000206001018281548110610eaf57fe5b906000526020600020016000610ec59190611511565b5050565b60008060003373ffffffffffffffffffffffffffffffffffffffff1673ffffffffffffffffffffffffffffffffffffffff16815260200190815260200160002054821115610f1657600080fd5b816000808573ffffffffffffffffffffffffffffffffffffffff1673ffffffffffffffffffffffffffffffffffffffff16815260200190815260200160002060008282540192505081905550816000803373ffffffffffffffffffffffffffffffffffffffff1673ffffffffffffffffffffffffffffffffffffffff168152602001908152602001600020600082825403925050819055508273ffffffffffffffffffffffffffffffffffffffff163373ffffffffffffffffffffffffffffffffffffffff167fddf252ad1be2c89b69c2b068fc378daa952ba7f163c4a11628f55a4df523b3ef846040518082815260200191505060405180910390a36001905092915050565b6009602052806000526040600020600091509050806000015490806001018054600181600116156101000203166002900480601f0160208091040260200160405190810160405280929190818152602001828054600181600116156101000203166002900480156110cf5780601f106110a4576101008083540402835291602001916110cf565b820191906000526020600020905b8154815290600101906020018083116110b257829003601f168201915b5050505050908060020160009054906101000a900460ff16905083565b600a60009054906101000a900473ffffffffffffffffffffffffffffffffffffffff1681565b6000600160008473ffffffffffffffffffffffffffffffffffffffff1673ffffffffffffffffffffffffffffffffffffffff16815260200190815260200160002060008373ffffffffffffffffffffffffffffffffffffffff1673ffffffffffffffffffffffffffffffffffffffff16815260200190815260200160002054905092915050565b6007544210156111a857600080fd5b600a60009054906101000a900473ffffffffffffffffffffffffffffffffffffffff1673ffffffffffffffffffffffffffffffffffffffff163373ffffffffffffffffffffffffffffffffffffffff161461120257600080fd5b806009600060085481526020019081526020016000206000018190555081600960006008548152602001908152602001600020600101908051906020019061124b929190611559565b50600860008154809291906001019190505550620151806007600082825401925050819055505050565b6009600082815260200190815260200160002060020160009054906101000a900460ff16156112a357600080fd5b60096000828152602001908152602001600020600001546000803373ffffffffffffffffffffffffffffffffffffffff1673ffffffffffffffffffffffffffffffffffffffff16815260200190815260200160002054101561130457600080fd5b600b60003373ffffffffffffffffffffffffffffffffffffffff1673ffffffffffffffffffffffffffffffffffffffff1681526020019081526020016000206001016009600083815260200190815260200160002060010190806001815401808255809150509060018203906000526020600020016000909192909190915090805460018160011615610100020316600290046113a292919061148a565b5050600b60003373ffffffffffffffffffffffffffffffffffffffff1673ffffffffffffffffffffffffffffffffffffffff1681526020019081526020016000206000016000815480929190600101919050555060016009600083815260200190815260200160002060020160006101000a81548160ff02191690831515021790555060096000828152602001908152602001600020600001546000803373ffffffffffffffffffffffffffffffffffffffff1673ffffffffffffffffffffffffffffffffffffffff1681526020019081526020016000206000828254039250508190555050565b828054600181600116156101000203166002900490600052602060002090601f016020900481019282601f106114c35780548555611500565b8280016001018555821561150057600052602060002091601f016020900482015b828111156114ff5782548255916001019190600101906114e4565b5b50905061150d91906115d9565b5090565b50805460018160011615610100020316600290046000825580601f106115375750611556565b601f01602090049060005260206000209081019061155591906115d9565b5b50565b828054600181600116156101000203166002900490600052602060002090601f016020900481019282601f1061159a57805160ff19168380011785556115c8565b828001600101855582156115c8579182015b828111156115c75782518255916020019190600101906115ac565b5b5090506115d591906115d9565b5090565b6115fb91905b808211156115f75760008160009055506001016115df565b5090565b9056fea165627a7a723058207d060402c17286510301abc66c242cdc55838c0c2f349722d152ece50dc9675a0029",
  "source": "pragma solidity ^0.5.8;\r\n    import \"./Token.sol\";\r\n\r\n    contract CryptoColors is Token{\r\n    uint time = block.timestamp;\r\n    uint public colorsCount;\r\n    //List of added but not bought colors\r\n    struct FreeColors{\r\n        uint price;\r\n        string color;\r\n        bool bought;\r\n    }\r\n    mapping(uint => FreeColors) public colors;\r\n    address payable public mainPerson;  //contract deployer\r\n    //Someone who wants to collect our colors\r\n    struct Person {\r\n        uint howMuch;\r\n        string[] colors;\r\n    }\r\n    mapping(address => Person) public people;\r\n    //Function that allows main person to add new color to website (it can be done once a day)\r\n    function addColor(string memory _color, uint _price) public {\r\n       require(block.timestamp>=time);\r\n       require(msg.sender == mainPerson);\r\n       colors[colorsCount].price = _price;\r\n       colors[colorsCount].color = _color;\r\n       colorsCount++;\r\n       time += 86400;\r\n    }\r\n    function sellColor(uint _id, uint _price) public {\r\n        require(bytes(people[msg.sender].colors[_id]).length>0);\r\n        colors[colorsCount].price = _price;\r\n        colors[colorsCount].color = people[msg.sender].colors[_id];\r\n        delete people[msg.sender].colors[_id];\r\n    }\r\n    function buyColor(uint _id) public {\r\n        require(!colors[_id].bought);\r\n        require(balances[msg.sender]>=colors[_id].price);\r\n        people[msg.sender].colors.push(colors[_id].color);\r\n        people[msg.sender].howMuch++;\r\n        colors[_id].bought = true;\r\n        balances[msg.sender] -=colors[_id].price;\r\n    }\r\n    //How much time left to new color add\r\n    function getTime() public view returns(uint) {\r\n        return time-block.timestamp;\r\n    }\r\n    constructor(\r\n          string memory _name,\r\n          string memory _symbol,\r\n          uint8 _decimals,\r\n          uint _totalSupply)\r\n    Token(_name, _symbol, _decimals, _totalSupply) public {\r\n        mainPerson=msg.sender;\r\n    }\r\n}\r\n",
  "sourcePath": "E:/Crypto-colors/src/contracts/CryptoColors.sol",
  "compiler": {
    "name": "solc",
    "version": "0.5.8+commit.23d335f2.Emscripten.clang"
  },
  "schemaVersion": "3.0.13",
  "updatedAt": "2019-10-13T10:47:34.048Z",
  "devdoc": {
    "methods": {}
  },
  "userdoc": {
    "methods": {}
  }
}