{
  "contractName": "CryptoColors",
  "abi": [
    {
      "constant": true,
      "inputs": [
        {
          "name": "",
          "type": "address"
        },
        {
          "name": "",
          "type": "uint256"
        }
      ],
      "name": "people",
      "outputs": [
        {
          "name": "",
          "type": "uint256"
        }
      ],
      "payable": false,
      "stateMutability": "view",
      "type": "function"
    },
    {
      "constant": true,
      "inputs": [],
      "name": "name",
      "outputs": [
        {
          "name": "",
          "type": "string"
        }
      ],
      "payable": false,
      "stateMutability": "view",
      "type": "function"
    },
    {
      "constant": false,
      "inputs": [
        {
          "name": "spender",
          "type": "address"
        },
        {
          "name": "tokens",
          "type": "uint256"
        }
      ],
      "name": "approve",
      "outputs": [
        {
          "name": "",
          "type": "bool"
        }
      ],
      "payable": false,
      "stateMutability": "nonpayable",
      "type": "function"
    },
    {
      "constant": true,
      "inputs": [],
      "name": "totalSupply",
      "outputs": [
        {
          "name": "",
          "type": "uint256"
        }
      ],
      "payable": false,
      "stateMutability": "view",
      "type": "function"
    },
    {
      "constant": false,
      "inputs": [
        {
          "name": "from",
          "type": "address"
        },
        {
          "name": "to",
          "type": "address"
        },
        {
          "name": "tokens",
          "type": "uint256"
        }
      ],
      "name": "transferFrom",
      "outputs": [
        {
          "name": "",
          "type": "bool"
        }
      ],
      "payable": false,
      "stateMutability": "nonpayable",
      "type": "function"
    },
    {
      "constant": true,
      "inputs": [],
      "name": "decimals",
      "outputs": [
        {
          "name": "",
          "type": "uint8"
        }
      ],
      "payable": false,
      "stateMutability": "view",
      "type": "function"
    },
    {
      "constant": true,
      "inputs": [],
      "name": "colorsCount",
      "outputs": [
        {
          "name": "",
          "type": "uint256"
        }
      ],
      "payable": false,
      "stateMutability": "view",
      "type": "function"
    },
    {
      "constant": true,
      "inputs": [],
      "name": "_totalSupply",
      "outputs": [
        {
          "name": "",
          "type": "uint256"
        }
      ],
      "payable": false,
      "stateMutability": "view",
      "type": "function"
    },
    {
      "constant": true,
      "inputs": [
        {
          "name": "",
          "type": "address"
        },
        {
          "name": "",
          "type": "address"
        }
      ],
      "name": "allowed",
      "outputs": [
        {
          "name": "",
          "type": "uint256"
        }
      ],
      "payable": false,
      "stateMutability": "view",
      "type": "function"
    },
    {
      "constant": true,
      "inputs": [
        {
          "name": "tokenOwner",
          "type": "address"
        }
      ],
      "name": "balanceOf",
      "outputs": [
        {
          "name": "",
          "type": "uint256"
        }
      ],
      "payable": false,
      "stateMutability": "view",
      "type": "function"
    },
    {
      "constant": true,
      "inputs": [],
      "name": "symbol",
      "outputs": [
        {
          "name": "",
          "type": "string"
        }
      ],
      "payable": false,
      "stateMutability": "view",
      "type": "function"
    },
    {
      "constant": false,
      "inputs": [
        {
          "name": "to",
          "type": "address"
        },
        {
          "name": "tokens",
          "type": "uint256"
        }
      ],
      "name": "transfer",
      "outputs": [
        {
          "name": "",
          "type": "bool"
        }
      ],
      "payable": false,
      "stateMutability": "nonpayable",
      "type": "function"
    },
    {
      "constant": true,
      "inputs": [],
      "name": "tokensLeft",
      "outputs": [
        {
          "name": "",
          "type": "uint256"
        }
      ],
      "payable": false,
      "stateMutability": "view",
      "type": "function"
    },
    {
      "constant": true,
      "inputs": [
        {
          "name": "",
          "type": "uint256"
        }
      ],
      "name": "colors",
      "outputs": [
        {
          "name": "owner",
          "type": "address"
        },
        {
          "name": "price",
          "type": "uint256"
        },
        {
          "name": "color",
          "type": "string"
        },
        {
          "name": "bought",
          "type": "bool"
        }
      ],
      "payable": false,
      "stateMutability": "view",
      "type": "function"
    },
    {
      "constant": false,
      "inputs": [],
      "name": "buyTokens",
      "outputs": [],
      "payable": true,
      "stateMutability": "payable",
      "type": "function"
    },
    {
      "constant": true,
      "inputs": [],
      "name": "mainPerson",
      "outputs": [
        {
          "name": "",
          "type": "address"
        }
      ],
      "payable": false,
      "stateMutability": "view",
      "type": "function"
    },
    {
      "constant": true,
      "inputs": [
        {
          "name": "tokenOwner",
          "type": "address"
        },
        {
          "name": "spender",
          "type": "address"
        }
      ],
      "name": "allowance",
      "outputs": [
        {
          "name": "",
          "type": "uint256"
        }
      ],
      "payable": false,
      "stateMutability": "view",
      "type": "function"
    },
    {
      "inputs": [
        {
          "name": "_name",
          "type": "string"
        },
        {
          "name": "_symbol",
          "type": "string"
        },
        {
          "name": "_decimals",
          "type": "uint8"
        },
        {
          "name": "_totalSupply",
          "type": "uint256"
        }
      ],
      "payable": false,
      "stateMutability": "nonpayable",
      "type": "constructor"
    },
    {
      "anonymous": false,
      "inputs": [
        {
          "indexed": true,
          "name": "_from",
          "type": "address"
        },
        {
          "indexed": true,
          "name": "_to",
          "type": "address"
        },
        {
          "indexed": false,
          "name": "_value",
          "type": "uint256"
        }
      ],
      "name": "Transfer",
      "type": "event"
    },
    {
      "anonymous": false,
      "inputs": [
        {
          "indexed": true,
          "name": "_owner",
          "type": "address"
        },
        {
          "indexed": true,
          "name": "_spender",
          "type": "address"
        },
        {
          "indexed": false,
          "name": "_value",
          "type": "uint256"
        }
      ],
      "name": "Approval",
      "type": "event"
    },
    {
      "constant": false,
      "inputs": [
        {
          "name": "_color",
          "type": "string"
        },
        {
          "name": "_price",
          "type": "uint256"
        }
      ],
      "name": "addColor",
      "outputs": [],
      "payable": false,
      "stateMutability": "nonpayable",
      "type": "function"
    },
    {
      "constant": false,
      "inputs": [
        {
          "name": "_id",
          "type": "uint256"
        },
        {
          "name": "_price",
          "type": "uint256"
        }
      ],
      "name": "sellColor",
      "outputs": [],
      "payable": false,
      "stateMutability": "nonpayable",
      "type": "function"
    },
    {
      "constant": false,
      "inputs": [
        {
          "name": "_id",
          "type": "uint256"
        }
      ],
      "name": "buyColor",
      "outputs": [],
      "payable": false,
      "stateMutability": "nonpayable",
      "type": "function"
    },
    {
      "constant": true,
      "inputs": [],
      "name": "getTime",
      "outputs": [
        {
          "name": "",
          "type": "uint256"
        }
      ],
      "payable": false,
      "stateMutability": "view",
      "type": "function"
    }
  ],
  "bytecode": "0x6080604052426008553480156200001557600080fd5b506040516200206a3803806200206a833981018060405260808110156200003b57600080fd5b8101908080516401000000008111156200005457600080fd5b828101905060208101848111156200006b57600080fd5b81518560018202830111640100000000821117156200008957600080fd5b50509291906020018051640100000000811115620000a657600080fd5b82810190506020810184811115620000bd57600080fd5b8151856001820283011164010000000082111715620000db57600080fd5b505092919060200180519060200190929190805190602001909291905050508383838383600490805190602001906200011692919062000749565b5082600590805190602001906200012f92919062000749565b5081600660006101000a81548160ff021916908360ff1602179055508160ff16600a0a6007819055506007548102600281905550600a600254816200017057fe5b046000803373ffffffffffffffffffffffffffffffffffffffff1673ffffffffffffffffffffffffffffffffffffffff168152602001908152602001600020819055506000803373ffffffffffffffffffffffffffffffffffffffff1673ffffffffffffffffffffffffffffffffffffffff16815260200190815260200160002054600254036003819055505050505033600b60006101000a81548173ffffffffffffffffffffffffffffffffffffffff021916908373ffffffffffffffffffffffffffffffffffffffff160217905550620002896040518060400160405280600381526020017f52656400000000000000000000000000000000000000000000000000000000008152506064620002a560201b60201c565b6200029b6001620003f760201b60201c565b50505050620007f8565b6009600081548092919060010191905055506000825111620002c657600080fd5b60008111620002d457600080fd5b600854421015620002e457600080fd5b600b60009054906101000a900473ffffffffffffffffffffffffffffffffffffffff1673ffffffffffffffffffffffffffffffffffffffff163373ffffffffffffffffffffffffffffffffffffffff16146200033f57600080fd5b80600a600060095481526020019081526020016000206001018190555081600a6000600954815260200190815260200160002060020190805190602001906200038a92919062000749565b5033600a6000600954815260200190815260200160002060000160006101000a81548173ffffffffffffffffffffffffffffffffffffffff021916908373ffffffffffffffffffffffffffffffffffffffff160217905550600f6008600082825401925050819055505050565b60095481111580156200040a5750600081115b6200041457600080fd5b600a600082815260200190815260200160002060030160009054906101000a900460ff16156200044357600080fd5b600a6000828152602001908152602001600020600101546000803373ffffffffffffffffffffffffffffffffffffffff1673ffffffffffffffffffffffffffffffffffffffff168152602001908152602001600020541015620004a557600080fd5b62000503600a600083815260200190815260200160002060000160009054906101000a900473ffffffffffffffffffffffffffffffffffffffff16600a600084815260200190815260200160002060010154620005f460201b60201c565b50600c60003373ffffffffffffffffffffffffffffffffffffffff1673ffffffffffffffffffffffffffffffffffffffff1681526020019081526020016000208190806001815401808255809150509060018203906000526020600020016000909192909190915055506001600a600083815260200190815260200160002060030160006101000a81548160ff02191690831515021790555033600a600083815260200190815260200160002060000160006101000a81548173ffffffffffffffffffffffffffffffffffffffff021916908373ffffffffffffffffffffffffffffffffffffffff16021790555050565b60008060003373ffffffffffffffffffffffffffffffffffffffff1673ffffffffffffffffffffffffffffffffffffffff168152602001908152602001600020548211156200064257600080fd5b816000808573ffffffffffffffffffffffffffffffffffffffff1673ffffffffffffffffffffffffffffffffffffffff16815260200190815260200160002060008282540192505081905550816000803373ffffffffffffffffffffffffffffffffffffffff1673ffffffffffffffffffffffffffffffffffffffff168152602001908152602001600020600082825403925050819055508273ffffffffffffffffffffffffffffffffffffffff163373ffffffffffffffffffffffffffffffffffffffff167fddf252ad1be2c89b69c2b068fc378daa952ba7f163c4a11628f55a4df523b3ef846040518082815260200191505060405180910390a36001905092915050565b828054600181600116156101000203166002900490600052602060002090601f016020900481019282601f106200078c57805160ff1916838001178555620007bd565b82800160010185558215620007bd579182015b82811115620007bc5782518255916020019190600101906200079f565b5b509050620007cc9190620007d0565b5090565b620007f591905b80821115620007f1576000816000905550600101620007d7565b5090565b90565b61186280620008086000396000f3fe60806040526004361061012a5760003560e01c806370a08231116100ab578063bd11f69d1161006f578063bd11f69d1461066e578063d0febe4c14610767578063d16f822a14610771578063dd62ed3e146107c8578063e29d769d1461084d578063f121da251461091f5761012a565b806370a082311461049657806395d89b41146104fb578063a06198691461058b578063a9059cbb146105d0578063b31f8f93146106435761012a565b8063313ce567116100f2578063313ce5671461035f578063356edf74146103905780633eaaf86b146103bb578063557ed1ba146103e65780635c658165146104115761012a565b806302731b831461012f57806306fdde031461019e578063095ea7b31461022e57806318160ddd146102a157806323b872dd146102cc575b600080fd5b34801561013b57600080fd5b506101886004803603604081101561015257600080fd5b81019080803573ffffffffffffffffffffffffffffffffffffffff1690602001909291908035906020019092919050505061095a565b6040518082815260200191505060405180910390f35b3480156101aa57600080fd5b506101b3610988565b6040518080602001828103825283818151815260200191508051906020019080838360005b838110156101f35780820151818401526020810190506101d8565b50505050905090810190601f1680156102205780820380516001836020036101000a031916815260200191505b509250505060405180910390f35b34801561023a57600080fd5b506102876004803603604081101561025157600080fd5b81019080803573ffffffffffffffffffffffffffffffffffffffff16906020019092919080359060200190929190505050610a26565b604051808215151515815260200191505060405180910390f35b3480156102ad57600080fd5b506102b6610b18565b6040518082815260200191505060405180910390f35b3480156102d857600080fd5b50610345600480360360608110156102ef57600080fd5b81019080803573ffffffffffffffffffffffffffffffffffffffff169060200190929190803573ffffffffffffffffffffffffffffffffffffffff16906020019092919080359060200190929190505050610b22565b604051808215151515815260200191505060405180910390f35b34801561036b57600080fd5b50610374610d8a565b604051808260ff1660ff16815260200191505060405180910390f35b34801561039c57600080fd5b506103a5610d9d565b6040518082815260200191505060405180910390f35b3480156103c757600080fd5b506103d0610da3565b6040518082815260200191505060405180910390f35b3480156103f257600080fd5b506103fb610da9565b6040518082815260200191505060405180910390f35b34801561041d57600080fd5b506104806004803603604081101561043457600080fd5b81019080803573ffffffffffffffffffffffffffffffffffffffff169060200190929190803573ffffffffffffffffffffffffffffffffffffffff169060200190929190505050610db5565b6040518082815260200191505060405180910390f35b3480156104a257600080fd5b506104e5600480360360208110156104b957600080fd5b81019080803573ffffffffffffffffffffffffffffffffffffffff169060200190929190505050610dda565b6040518082815260200191505060405180910390f35b34801561050757600080fd5b50610510610e22565b6040518080602001828103825283818151815260200191508051906020019080838360005b83811015610550578082015181840152602081019050610535565b50505050905090810190601f16801561057d5780820380516001836020036101000a031916815260200191505b509250505060405180910390f35b34801561059757600080fd5b506105ce600480360360408110156105ae57600080fd5b810190808035906020019092919080359060200190929190505050610ec0565b005b3480156105dc57600080fd5b50610629600480360360408110156105f357600080fd5b81019080803573ffffffffffffffffffffffffffffffffffffffff169060200190929190803590602001909291905050506110d0565b604051808215151515815260200191505060405180910390f35b34801561064f57600080fd5b50610658611224565b6040518082815260200191505060405180910390f35b34801561067a57600080fd5b506106a76004803603602081101561069157600080fd5b810190808035906020019092919050505061122a565b604051808573ffffffffffffffffffffffffffffffffffffffff1673ffffffffffffffffffffffffffffffffffffffff1681526020018481526020018060200183151515158152602001828103825284818151815260200191508051906020019080838360005b8381101561072957808201518184015260208101905061070e565b50505050905090810190601f1680156107565780820380516001836020036101000a031916815260200191505b509550505050505060405180910390f35b61076f61131f565b005b34801561077d57600080fd5b506107866113a7565b604051808273ffffffffffffffffffffffffffffffffffffffff1673ffffffffffffffffffffffffffffffffffffffff16815260200191505060405180910390f35b3480156107d457600080fd5b50610837600480360360408110156107eb57600080fd5b81019080803573ffffffffffffffffffffffffffffffffffffffff169060200190929190803573ffffffffffffffffffffffffffffffffffffffff1690602001909291905050506113cd565b6040518082815260200191505060405180910390f35b34801561085957600080fd5b5061091d6004803603604081101561087057600080fd5b810190808035906020019064010000000081111561088d57600080fd5b82018360208201111561089f57600080fd5b803590602001918460018302840111640100000000831117156108c157600080fd5b91908080601f016020809104026020016040519081016040528093929190818152602001838380828437600081840152601f19601f82011690508083019250505050505050919291929080359060200190929190505050611454565b005b34801561092b57600080fd5b506109586004803603602081101561094257600080fd5b81019080803590602001909291905050506115a0565b005b600c602052816000526040600020818154811061097357fe5b90600052602060002001600091509150505481565b60048054600181600116156101000203166002900480601f016020809104026020016040519081016040528092919081815260200182805460018160011615610100020316600290048015610a1e5780601f106109f357610100808354040283529160200191610a1e565b820191906000526020600020905b815481529060010190602001808311610a0157829003601f168201915b505050505081565b600081600160003373ffffffffffffffffffffffffffffffffffffffff1673ffffffffffffffffffffffffffffffffffffffff16815260200190815260200160002060008573ffffffffffffffffffffffffffffffffffffffff1673ffffffffffffffffffffffffffffffffffffffff168152602001908152602001600020819055508273ffffffffffffffffffffffffffffffffffffffff163373ffffffffffffffffffffffffffffffffffffffff167f8c5be1e5ebec7d5bd14f71427d1e84f3dd0314c0f7b2291e5b200ac8c7c3b925846040518082815260200191505060405180910390a36001905092915050565b6000600254905090565b6000816000808673ffffffffffffffffffffffffffffffffffffffff1673ffffffffffffffffffffffffffffffffffffffff168152602001908152602001600020541015610b6f57600080fd5b81600160008673ffffffffffffffffffffffffffffffffffffffff1673ffffffffffffffffffffffffffffffffffffffff16815260200190815260200160002060003373ffffffffffffffffffffffffffffffffffffffff1673ffffffffffffffffffffffffffffffffffffffff168152602001908152602001600020541015610bf857600080fd5b816000808673ffffffffffffffffffffffffffffffffffffffff1673ffffffffffffffffffffffffffffffffffffffff1681526020019081526020016000206000828254039250508190555081600160008673ffffffffffffffffffffffffffffffffffffffff1673ffffffffffffffffffffffffffffffffffffffff16815260200190815260200160002060003373ffffffffffffffffffffffffffffffffffffffff1673ffffffffffffffffffffffffffffffffffffffff16815260200190815260200160002060008282540392505081905550816000808573ffffffffffffffffffffffffffffffffffffffff1673ffffffffffffffffffffffffffffffffffffffff168152602001908152602001600020600082825401925050819055508273ffffffffffffffffffffffffffffffffffffffff168473ffffffffffffffffffffffffffffffffffffffff167fddf252ad1be2c89b69c2b068fc378daa952ba7f163c4a11628f55a4df523b3ef846040518082815260200191505060405180910390a3600190509392505050565b600660009054906101000a900460ff1681565b60095481565b60025481565b60004260085403905090565b6001602052816000526040600020602052806000526040600020600091509150505481565b60008060008373ffffffffffffffffffffffffffffffffffffffff1673ffffffffffffffffffffffffffffffffffffffff168152602001908152602001600020549050919050565b60058054600181600116156101000203166002900480601f016020809104026020016040519081016040528092919081815260200182805460018160011615610100020316600290048015610eb85780601f10610e8d57610100808354040283529160200191610eb8565b820191906000526020600020905b815481529060010190602001808311610e9b57829003601f168201915b505050505081565b3373ffffffffffffffffffffffffffffffffffffffff16600a6000600c60003373ffffffffffffffffffffffffffffffffffffffff1673ffffffffffffffffffffffffffffffffffffffff1681526020019081526020016000208581548110610f2557fe5b9060005260206000200154815260200190815260200160002060000160009054906101000a900473ffffffffffffffffffffffffffffffffffffffff1673ffffffffffffffffffffffffffffffffffffffff1614610f8257600080fd5b80600a6000600c60003373ffffffffffffffffffffffffffffffffffffffff1673ffffffffffffffffffffffffffffffffffffffff1681526020019081526020016000208581548110610fd157fe5b90600052602060002001548152602001908152602001600020600101819055506000600a6000600c60003373ffffffffffffffffffffffffffffffffffffffff1673ffffffffffffffffffffffffffffffffffffffff168152602001908152602001600020858154811061104157fe5b9060005260206000200154815260200190815260200160002060030160006101000a81548160ff021916908315150217905550600c60003373ffffffffffffffffffffffffffffffffffffffff1673ffffffffffffffffffffffffffffffffffffffff16815260200190815260200160002082815481106110be57fe5b90600052602060002001600090555050565b60008060003373ffffffffffffffffffffffffffffffffffffffff1673ffffffffffffffffffffffffffffffffffffffff1681526020019081526020016000205482111561111d57600080fd5b816000808573ffffffffffffffffffffffffffffffffffffffff1673ffffffffffffffffffffffffffffffffffffffff16815260200190815260200160002060008282540192505081905550816000803373ffffffffffffffffffffffffffffffffffffffff1673ffffffffffffffffffffffffffffffffffffffff168152602001908152602001600020600082825403925050819055508273ffffffffffffffffffffffffffffffffffffffff163373ffffffffffffffffffffffffffffffffffffffff167fddf252ad1be2c89b69c2b068fc378daa952ba7f163c4a11628f55a4df523b3ef846040518082815260200191505060405180910390a36001905092915050565b60035481565b600a6020528060005260406000206000915090508060000160009054906101000a900473ffffffffffffffffffffffffffffffffffffffff1690806001015490806002018054600181600116156101000203166002900480601f0160208091040260200160405190810160405280929190818152602001828054600181600116156101000203166002900480156113025780601f106112d757610100808354040283529160200191611302565b820191906000526020600020905b8154815290600101906020018083116112e557829003601f168201915b5050505050908060030160009054906101000a900460ff16905084565b6000341161132c57600080fd5b346003600082825403925050819055600354101561134957600080fd5b346000803373ffffffffffffffffffffffffffffffffffffffff1673ffffffffffffffffffffffffffffffffffffffff1681526020019081526020016000206000828254019250508190555034600360008282540392505081905550565b600b60009054906101000a900473ffffffffffffffffffffffffffffffffffffffff1681565b6000600160008473ffffffffffffffffffffffffffffffffffffffff1673ffffffffffffffffffffffffffffffffffffffff16815260200190815260200160002060008373ffffffffffffffffffffffffffffffffffffffff1673ffffffffffffffffffffffffffffffffffffffff16815260200190815260200160002054905092915050565b600960008154809291906001019190505550600082511161147457600080fd5b6000811161148157600080fd5b60085442101561149057600080fd5b600b60009054906101000a900473ffffffffffffffffffffffffffffffffffffffff1673ffffffffffffffffffffffffffffffffffffffff163373ffffffffffffffffffffffffffffffffffffffff16146114ea57600080fd5b80600a600060095481526020019081526020016000206001018190555081600a600060095481526020019081526020016000206002019080519060200190611533929190611791565b5033600a6000600954815260200190815260200160002060000160006101000a81548173ffffffffffffffffffffffffffffffffffffffff021916908373ffffffffffffffffffffffffffffffffffffffff160217905550600f6008600082825401925050819055505050565b60095481111580156115b25750600081115b6115bb57600080fd5b600a600082815260200190815260200160002060030160009054906101000a900460ff16156115e957600080fd5b600a6000828152602001908152602001600020600101546000803373ffffffffffffffffffffffffffffffffffffffff1673ffffffffffffffffffffffffffffffffffffffff16815260200190815260200160002054101561164a57600080fd5b6116a0600a600083815260200190815260200160002060000160009054906101000a900473ffffffffffffffffffffffffffffffffffffffff16600a6000848152602001908152602001600020600101546110d0565b50600c60003373ffffffffffffffffffffffffffffffffffffffff1673ffffffffffffffffffffffffffffffffffffffff1681526020019081526020016000208190806001815401808255809150509060018203906000526020600020016000909192909190915055506001600a600083815260200190815260200160002060030160006101000a81548160ff02191690831515021790555033600a600083815260200190815260200160002060000160006101000a81548173ffffffffffffffffffffffffffffffffffffffff021916908373ffffffffffffffffffffffffffffffffffffffff16021790555050565b828054600181600116156101000203166002900490600052602060002090601f016020900481019282601f106117d257805160ff1916838001178555611800565b82800160010185558215611800579182015b828111156117ff5782518255916020019190600101906117e4565b5b50905061180d9190611811565b5090565b61183391905b8082111561182f576000816000905550600101611817565b5090565b9056fea165627a7a723058205c842aded5d368fd3a014b55bf705dbfe440458149e2517f8da3d88b04df607d0029",
  "source": "pragma solidity ^0.5.8;\r\nimport \"./Token.sol\";\r\n\r\ncontract CryptoColors is Token{\r\n    uint time = block.timestamp;\r\n    uint public colorsCount;\r\n    //List of added but not bought colors\r\n    struct FreeColors{\r\n        address owner;\r\n        uint price;\r\n        string color;\r\n        bool bought;\r\n    }\r\n    mapping(uint => FreeColors) public colors;\r\n    address payable public mainPerson;  //contract deployer\r\n    //Someone who wants to collect our colors\r\n\r\n    mapping(address => uint[]) public people;\r\n    //Function that allows main person to add new color to website (it can be done once a day)\r\n    function addColor(string memory _color, uint _price) public {\r\n        colorsCount++;\r\n        require(bytes(_color).length>0);\r\n        require(_price>0);\r\n        require(block.timestamp>=time);\r\n        require(msg.sender == mainPerson);\r\n        colors[colorsCount].price = _price;\r\n        colors[colorsCount].color = _color;\r\n        colors[colorsCount].owner = msg.sender;\r\n\r\n        time += 15;\r\n    }\r\n    function sellColor(uint _id, uint _price) public {\r\n        require(colors[people[msg.sender][_id]].owner == msg.sender);\r\n        colors[people[msg.sender][_id]].price = _price;\r\n        colors[people[msg.sender][_id]].bought = false;\r\n        delete people[msg.sender][_id];\r\n    }\r\n    function buyColor(uint _id) public {\r\n        require(_id<=colorsCount && _id>0);\r\n        require(!colors[_id].bought);\r\n        require(balances[msg.sender]>=colors[_id].price);\r\n        transfer(colors[_id].owner, colors[_id].price);\r\n        people[msg.sender].push(_id);\r\n        colors[_id].bought = true;\r\n        colors[_id].owner = msg.sender;\r\n    }\r\n    //How much time left to new color add\r\n    function getTime() public view returns(uint) {\r\n        return time-block.timestamp;\r\n    }\r\n    constructor(\r\n        string memory _name,\r\n        string memory _symbol,\r\n        uint8 _decimals,\r\n        uint _totalSupply)\r\n    Token(_name, _symbol, _decimals, _totalSupply) public {\r\n        mainPerson=msg.sender;\r\n        addColor(\"Red\", 100);\r\n        buyColor(1);\r\n    }\r\n}\r\n",
  "sourcePath": "E:/Crypto-colors/src/contracts/CryptoColors.sol",
  "compiler": {
    "name": "solc",
    "version": "0.5.8+commit.23d335f2.Emscripten.clang"
  },
  "schemaVersion": "3.0.13",
  "updatedAt": "2019-10-16T22:46:47.235Z",
  "devdoc": {
    "methods": {}
  },
  "userdoc": {
    "methods": {}
  }
}