{
  "contractName": "CryptoColors",
  "abi": [
    {
      "constant": true,
      "inputs": [],
      "name": "name",
      "outputs": [
        {
          "name": "",
          "type": "string"
        }
      ],
      "payable": false,
      "stateMutability": "view",
      "type": "function"
    },
    {
      "constant": true,
      "inputs": [
        {
          "name": "",
          "type": "address"
        }
      ],
      "name": "people",
      "outputs": [
        {
          "name": "howMuch",
          "type": "uint256"
        }
      ],
      "payable": false,
      "stateMutability": "view",
      "type": "function"
    },
    {
      "constant": false,
      "inputs": [
        {
          "name": "spender",
          "type": "address"
        },
        {
          "name": "tokens",
          "type": "uint256"
        }
      ],
      "name": "approve",
      "outputs": [
        {
          "name": "",
          "type": "bool"
        }
      ],
      "payable": false,
      "stateMutability": "nonpayable",
      "type": "function"
    },
    {
      "constant": true,
      "inputs": [],
      "name": "totalSupply",
      "outputs": [
        {
          "name": "",
          "type": "uint256"
        }
      ],
      "payable": false,
      "stateMutability": "view",
      "type": "function"
    },
    {
      "constant": false,
      "inputs": [
        {
          "name": "from",
          "type": "address"
        },
        {
          "name": "to",
          "type": "address"
        },
        {
          "name": "tokens",
          "type": "uint256"
        }
      ],
      "name": "transferFrom",
      "outputs": [
        {
          "name": "",
          "type": "bool"
        }
      ],
      "payable": false,
      "stateMutability": "nonpayable",
      "type": "function"
    },
    {
      "constant": true,
      "inputs": [],
      "name": "decimals",
      "outputs": [
        {
          "name": "",
          "type": "uint8"
        }
      ],
      "payable": false,
      "stateMutability": "view",
      "type": "function"
    },
    {
      "constant": true,
      "inputs": [],
      "name": "colorsCount",
      "outputs": [
        {
          "name": "",
          "type": "uint256"
        }
      ],
      "payable": false,
      "stateMutability": "view",
      "type": "function"
    },
    {
      "constant": true,
      "inputs": [],
      "name": "_totalSupply",
      "outputs": [
        {
          "name": "",
          "type": "uint256"
        }
      ],
      "payable": false,
      "stateMutability": "view",
      "type": "function"
    },
    {
      "constant": true,
      "inputs": [
        {
          "name": "",
          "type": "address"
        },
        {
          "name": "",
          "type": "address"
        }
      ],
      "name": "allowed",
      "outputs": [
        {
          "name": "",
          "type": "uint256"
        }
      ],
      "payable": false,
      "stateMutability": "view",
      "type": "function"
    },
    {
      "constant": true,
      "inputs": [
        {
          "name": "tokenOwner",
          "type": "address"
        }
      ],
      "name": "balanceOf",
      "outputs": [
        {
          "name": "",
          "type": "uint256"
        }
      ],
      "payable": false,
      "stateMutability": "view",
      "type": "function"
    },
    {
      "constant": true,
      "inputs": [],
      "name": "symbol",
      "outputs": [
        {
          "name": "",
          "type": "string"
        }
      ],
      "payable": false,
      "stateMutability": "view",
      "type": "function"
    },
    {
      "constant": false,
      "inputs": [
        {
          "name": "to",
          "type": "address"
        },
        {
          "name": "tokens",
          "type": "uint256"
        }
      ],
      "name": "transfer",
      "outputs": [
        {
          "name": "",
          "type": "bool"
        }
      ],
      "payable": false,
      "stateMutability": "nonpayable",
      "type": "function"
    },
    {
      "constant": true,
      "inputs": [
        {
          "name": "",
          "type": "uint256"
        }
      ],
      "name": "colors",
      "outputs": [
        {
          "name": "owner",
          "type": "address"
        },
        {
          "name": "price",
          "type": "uint256"
        },
        {
          "name": "color",
          "type": "string"
        },
        {
          "name": "bought",
          "type": "bool"
        }
      ],
      "payable": false,
      "stateMutability": "view",
      "type": "function"
    },
    {
      "constant": false,
      "inputs": [],
      "name": "buyTokens",
      "outputs": [],
      "payable": true,
      "stateMutability": "payable",
      "type": "function"
    },
    {
      "constant": true,
      "inputs": [],
      "name": "mainPerson",
      "outputs": [
        {
          "name": "",
          "type": "address"
        }
      ],
      "payable": false,
      "stateMutability": "view",
      "type": "function"
    },
    {
      "constant": true,
      "inputs": [
        {
          "name": "tokenOwner",
          "type": "address"
        },
        {
          "name": "spender",
          "type": "address"
        }
      ],
      "name": "allowance",
      "outputs": [
        {
          "name": "",
          "type": "uint256"
        }
      ],
      "payable": false,
      "stateMutability": "view",
      "type": "function"
    },
    {
      "inputs": [
        {
          "name": "_name",
          "type": "string"
        },
        {
          "name": "_symbol",
          "type": "string"
        },
        {
          "name": "_decimals",
          "type": "uint8"
        },
        {
          "name": "_totalSupply",
          "type": "uint256"
        }
      ],
      "payable": false,
      "stateMutability": "nonpayable",
      "type": "constructor"
    },
    {
      "anonymous": false,
      "inputs": [
        {
          "indexed": true,
          "name": "_from",
          "type": "address"
        },
        {
          "indexed": true,
          "name": "_to",
          "type": "address"
        },
        {
          "indexed": false,
          "name": "_value",
          "type": "uint256"
        }
      ],
      "name": "Transfer",
      "type": "event"
    },
    {
      "anonymous": false,
      "inputs": [
        {
          "indexed": true,
          "name": "_owner",
          "type": "address"
        },
        {
          "indexed": true,
          "name": "_spender",
          "type": "address"
        },
        {
          "indexed": false,
          "name": "_value",
          "type": "uint256"
        }
      ],
      "name": "Approval",
      "type": "event"
    },
    {
      "constant": false,
      "inputs": [
        {
          "name": "_color",
          "type": "string"
        },
        {
          "name": "_price",
          "type": "uint256"
        }
      ],
      "name": "addColor",
      "outputs": [],
      "payable": false,
      "stateMutability": "nonpayable",
      "type": "function"
    },
    {
      "constant": false,
      "inputs": [
        {
          "name": "_id",
          "type": "uint256"
        },
        {
          "name": "_price",
          "type": "uint256"
        }
      ],
      "name": "sellColor",
      "outputs": [],
      "payable": false,
      "stateMutability": "nonpayable",
      "type": "function"
    },
    {
      "constant": false,
      "inputs": [
        {
          "name": "_id",
          "type": "uint256"
        }
      ],
      "name": "buyColor",
      "outputs": [],
      "payable": false,
      "stateMutability": "nonpayable",
      "type": "function"
    },
    {
      "constant": true,
      "inputs": [],
      "name": "getTime",
      "outputs": [
        {
          "name": "",
          "type": "uint256"
        }
      ],
      "payable": false,
      "stateMutability": "view",
      "type": "function"
    }
  ],
  "bytecode": "0x6080604052426007553480156200001557600080fd5b5060405162001bc538038062001bc5833981018060405260808110156200003b57600080fd5b8101908080516401000000008111156200005457600080fd5b828101905060208101848111156200006b57600080fd5b81518560018202830111640100000000821117156200008957600080fd5b50509291906020018051640100000000811115620000a657600080fd5b82810190506020810184811115620000bd57600080fd5b8151856001820283011164010000000082111715620000db57600080fd5b505092919060200180519060200190929190805190602001909291905050508383838383600390805190602001906200011692919062000202565b5082600490805190602001906200012f92919062000202565b5081600560006101000a81548160ff021916908360ff1602179055508160ff16600a0a6006819055506006548102600281905550600a600254816200017057fe5b046000803373ffffffffffffffffffffffffffffffffffffffff1673ffffffffffffffffffffffffffffffffffffffff168152602001908152602001600020819055505050505033600a60006101000a81548173ffffffffffffffffffffffffffffffffffffffff021916908373ffffffffffffffffffffffffffffffffffffffff16021790555050505050620002b1565b828054600181600116156101000203166002900490600052602060002090601f016020900481019282601f106200024557805160ff191683800117855562000276565b8280016001018555821562000276579182015b828111156200027557825182559160200191906001019062000258565b5b50905062000285919062000289565b5090565b620002ae91905b80821115620002aa57600081600090555060010162000290565b5090565b90565b61190480620002c16000396000f3fe60806040526004361061011f5760003560e01c806370a08231116100a0578063d0febe4c11610064578063d0febe4c14610727578063d16f822a14610731578063dd62ed3e14610788578063e29d769d1461080d578063f121da25146108df5761011f565b806370a082311461048157806395d89b41146104e6578063a061986914610576578063a9059cbb146105bb578063bd11f69d1461062e5761011f565b8063313ce567116100e7578063313ce5671461034a578063356edf741461037b5780633eaaf86b146103a6578063557ed1ba146103d15780635c658165146103fc5761011f565b806306fdde031461012457806307de9735146101b4578063095ea7b31461021957806318160ddd1461028c57806323b872dd146102b7575b600080fd5b34801561013057600080fd5b5061013961091a565b6040518080602001828103825283818151815260200191508051906020019080838360005b8381101561017957808201518184015260208101905061015e565b50505050905090810190601f1680156101a65780820380516001836020036101000a031916815260200191505b509250505060405180910390f35b3480156101c057600080fd5b50610203600480360360208110156101d757600080fd5b81019080803573ffffffffffffffffffffffffffffffffffffffff1690602001909291905050506109b8565b6040518082815260200191505060405180910390f35b34801561022557600080fd5b506102726004803603604081101561023c57600080fd5b81019080803573ffffffffffffffffffffffffffffffffffffffff169060200190929190803590602001909291905050506109d6565b604051808215151515815260200191505060405180910390f35b34801561029857600080fd5b506102a1610ac8565b6040518082815260200191505060405180910390f35b3480156102c357600080fd5b50610330600480360360608110156102da57600080fd5b81019080803573ffffffffffffffffffffffffffffffffffffffff169060200190929190803573ffffffffffffffffffffffffffffffffffffffff16906020019092919080359060200190929190505050610ad2565b604051808215151515815260200191505060405180910390f35b34801561035657600080fd5b5061035f610d3a565b604051808260ff1660ff16815260200191505060405180910390f35b34801561038757600080fd5b50610390610d4d565b6040518082815260200191505060405180910390f35b3480156103b257600080fd5b506103bb610d53565b6040518082815260200191505060405180910390f35b3480156103dd57600080fd5b506103e6610d59565b6040518082815260200191505060405180910390f35b34801561040857600080fd5b5061046b6004803603604081101561041f57600080fd5b81019080803573ffffffffffffffffffffffffffffffffffffffff169060200190929190803573ffffffffffffffffffffffffffffffffffffffff169060200190929190505050610d65565b6040518082815260200191505060405180910390f35b34801561048d57600080fd5b506104d0600480360360208110156104a457600080fd5b81019080803573ffffffffffffffffffffffffffffffffffffffff169060200190929190505050610d8a565b6040518082815260200191505060405180910390f35b3480156104f257600080fd5b506104fb610dd2565b6040518080602001828103825283818151815260200191508051906020019080838360005b8381101561053b578082015181840152602081019050610520565b50505050905090810190601f1680156105685780820380516001836020036101000a031916815260200191505b509250505060405180910390f35b34801561058257600080fd5b506105b96004803603604081101561059957600080fd5b810190808035906020019092919080359060200190929190505050610e70565b005b3480156105c757600080fd5b50610614600480360360408110156105de57600080fd5b81019080803573ffffffffffffffffffffffffffffffffffffffff16906020019092919080359060200190929190505050611070565b604051808215151515815260200191505060405180910390f35b34801561063a57600080fd5b506106676004803603602081101561065157600080fd5b81019080803590602001909291905050506111c4565b604051808573ffffffffffffffffffffffffffffffffffffffff1673ffffffffffffffffffffffffffffffffffffffff1681526020018481526020018060200183151515158152602001828103825284818151815260200191508051906020019080838360005b838110156106e95780820151818401526020810190506106ce565b50505050905090810190601f1680156107165780820380516001836020036101000a031916815260200191505b509550505050505060405180910390f35b61072f6112b9565b005b34801561073d57600080fd5b50610746611319565b604051808273ffffffffffffffffffffffffffffffffffffffff1673ffffffffffffffffffffffffffffffffffffffff16815260200191505060405180910390f35b34801561079457600080fd5b506107f7600480360360408110156107ab57600080fd5b81019080803573ffffffffffffffffffffffffffffffffffffffff169060200190929190803573ffffffffffffffffffffffffffffffffffffffff16906020019092919050505061133f565b6040518082815260200191505060405180910390f35b34801561081957600080fd5b506108dd6004803603604081101561083057600080fd5b810190808035906020019064010000000081111561084d57600080fd5b82018360208201111561085f57600080fd5b8035906020019184600183028401116401000000008311171561088157600080fd5b91908080601f016020809104026020016040519081016040528093929190818152602001838380828437600081840152601f19601f820116905080830192505050505050509192919290803590602001909291905050506113c6565b005b3480156108eb57600080fd5b506109186004803603602081101561090257600080fd5b8101908080359060200190929190505050611514565b005b60038054600181600116156101000203166002900480601f0160208091040260200160405190810160405280929190818152602001828054600181600116156101000203166002900480156109b05780601f10610985576101008083540402835291602001916109b0565b820191906000526020600020905b81548152906001019060200180831161099357829003601f168201915b505050505081565b600b6020528060005260406000206000915090508060000154905081565b600081600160003373ffffffffffffffffffffffffffffffffffffffff1673ffffffffffffffffffffffffffffffffffffffff16815260200190815260200160002060008573ffffffffffffffffffffffffffffffffffffffff1673ffffffffffffffffffffffffffffffffffffffff168152602001908152602001600020819055508273ffffffffffffffffffffffffffffffffffffffff163373ffffffffffffffffffffffffffffffffffffffff167f8c5be1e5ebec7d5bd14f71427d1e84f3dd0314c0f7b2291e5b200ac8c7c3b925846040518082815260200191505060405180910390a36001905092915050565b6000600654905090565b6000816000808673ffffffffffffffffffffffffffffffffffffffff1673ffffffffffffffffffffffffffffffffffffffff168152602001908152602001600020541015610b1f57600080fd5b81600160008673ffffffffffffffffffffffffffffffffffffffff1673ffffffffffffffffffffffffffffffffffffffff16815260200190815260200160002060003373ffffffffffffffffffffffffffffffffffffffff1673ffffffffffffffffffffffffffffffffffffffff168152602001908152602001600020541015610ba857600080fd5b816000808673ffffffffffffffffffffffffffffffffffffffff1673ffffffffffffffffffffffffffffffffffffffff1681526020019081526020016000206000828254039250508190555081600160008673ffffffffffffffffffffffffffffffffffffffff1673ffffffffffffffffffffffffffffffffffffffff16815260200190815260200160002060003373ffffffffffffffffffffffffffffffffffffffff1673ffffffffffffffffffffffffffffffffffffffff16815260200190815260200160002060008282540392505081905550816000808573ffffffffffffffffffffffffffffffffffffffff1673ffffffffffffffffffffffffffffffffffffffff168152602001908152602001600020600082825401925050819055508273ffffffffffffffffffffffffffffffffffffffff168473ffffffffffffffffffffffffffffffffffffffff167fddf252ad1be2c89b69c2b068fc378daa952ba7f163c4a11628f55a4df523b3ef846040518082815260200191505060405180910390a3600190509392505050565b600560009054906101000a900460ff1681565b60085481565b60025481565b60004260075403905090565b6001602052816000526040600020602052806000526040600020600091509150505481565b60008060008373ffffffffffffffffffffffffffffffffffffffff1673ffffffffffffffffffffffffffffffffffffffff168152602001908152602001600020549050919050565b60048054600181600116156101000203166002900480601f016020809104026020016040519081016040528092919081815260200182805460018160011615610100020316600290048015610e685780601f10610e3d57610100808354040283529160200191610e68565b820191906000526020600020905b815481529060010190602001808311610e4b57829003601f168201915b505050505081565b6000600b60003373ffffffffffffffffffffffffffffffffffffffff1673ffffffffffffffffffffffffffffffffffffffff168152602001908152602001600020600101600084815260200190815260200160002080546001816001161561010002031660029004905011610ee457600080fd5b8060096000600854815260200190815260200160002060010181905550600b60003373ffffffffffffffffffffffffffffffffffffffff1673ffffffffffffffffffffffffffffffffffffffff16815260200190815260200160002060010160008381526020019081526020016000206009600060085481526020019081526020016000206002019080546001816001161561010002031660029004610f8b9291906117ac565b503360096000600854815260200190815260200160002060000160006101000a81548173ffffffffffffffffffffffffffffffffffffffff021916908373ffffffffffffffffffffffffffffffffffffffff16021790555060086000815480929190600101919050555060405180602001604052806000815250600b60003373ffffffffffffffffffffffffffffffffffffffff1673ffffffffffffffffffffffffffffffffffffffff1681526020019081526020016000206001016000848152602001908152602001600020908051906020019061106b929190611833565b505050565b60008060003373ffffffffffffffffffffffffffffffffffffffff1673ffffffffffffffffffffffffffffffffffffffff168152602001908152602001600020548211156110bd57600080fd5b816000808573ffffffffffffffffffffffffffffffffffffffff1673ffffffffffffffffffffffffffffffffffffffff16815260200190815260200160002060008282540192505081905550816000803373ffffffffffffffffffffffffffffffffffffffff1673ffffffffffffffffffffffffffffffffffffffff168152602001908152602001600020600082825403925050819055508273ffffffffffffffffffffffffffffffffffffffff163373ffffffffffffffffffffffffffffffffffffffff167fddf252ad1be2c89b69c2b068fc378daa952ba7f163c4a11628f55a4df523b3ef846040518082815260200191505060405180910390a36001905092915050565b60096020528060005260406000206000915090508060000160009054906101000a900473ffffffffffffffffffffffffffffffffffffffff1690806001015490806002018054600181600116156101000203166002900480601f01602080910402602001604051908101604052809291908181526020018280546001816001161561010002031660029004801561129c5780601f106112715761010080835404028352916020019161129c565b820191906000526020600020905b81548152906001019060200180831161127f57829003601f168201915b5050505050908060030160009054906101000a900460ff16905084565b64e8d4a510003410156112cb57600080fd5b346000803373ffffffffffffffffffffffffffffffffffffffff1673ffffffffffffffffffffffffffffffffffffffff16815260200190815260200160002060008282540192505081905550565b600a60009054906101000a900473ffffffffffffffffffffffffffffffffffffffff1681565b6000600160008473ffffffffffffffffffffffffffffffffffffffff1673ffffffffffffffffffffffffffffffffffffffff16815260200190815260200160002060008373ffffffffffffffffffffffffffffffffffffffff1673ffffffffffffffffffffffffffffffffffffffff16815260200190815260200160002054905092915050565b60008251116113d457600080fd5b600081116113e157600080fd5b6007544210156113f057600080fd5b600a60009054906101000a900473ffffffffffffffffffffffffffffffffffffffff1673ffffffffffffffffffffffffffffffffffffffff163373ffffffffffffffffffffffffffffffffffffffff161461144a57600080fd5b8060096000600854815260200190815260200160002060010181905550816009600060085481526020019081526020016000206002019080519060200190611493929190611833565b503360096000600854815260200190815260200160002060000160006101000a81548173ffffffffffffffffffffffffffffffffffffffff021916908373ffffffffffffffffffffffffffffffffffffffff160217905550600860008154809291906001019190505550620151806007600082825401925050819055505050565b600854811061152257600080fd5b6009600082815260200190815260200160002060030160009054906101000a900460ff161561155057600080fd5b60096000828152602001908152602001600020600101546000803373ffffffffffffffffffffffffffffffffffffffff1673ffffffffffffffffffffffffffffffffffffffff1681526020019081526020016000205410156115b157600080fd5b6116076009600083815260200190815260200160002060000160009054906101000a900473ffffffffffffffffffffffffffffffffffffffff166009600084815260200190815260200160002060010154611070565b50600b60003373ffffffffffffffffffffffffffffffffffffffff1673ffffffffffffffffffffffffffffffffffffffff1681526020019081526020016000206000016000815480929190600101919050555060096000828152602001908152602001600020600201600b60003373ffffffffffffffffffffffffffffffffffffffff1673ffffffffffffffffffffffffffffffffffffffff1681526020019081526020016000206001016000600b60003373ffffffffffffffffffffffffffffffffffffffff1673ffffffffffffffffffffffffffffffffffffffff16815260200190815260200160002060000154815260200190815260200160002090805460018160011615610100020316600290046117249291906117ac565b5060016009600083815260200190815260200160002060030160006101000a81548160ff021916908315150217905550336009600083815260200190815260200160002060000160006101000a81548173ffffffffffffffffffffffffffffffffffffffff021916908373ffffffffffffffffffffffffffffffffffffffff16021790555050565b828054600181600116156101000203166002900490600052602060002090601f016020900481019282601f106117e55780548555611822565b8280016001018555821561182257600052602060002091601f016020900482015b82811115611821578254825591600101919060010190611806565b5b50905061182f91906118b3565b5090565b828054600181600116156101000203166002900490600052602060002090601f016020900481019282601f1061187457805160ff19168380011785556118a2565b828001600101855582156118a2579182015b828111156118a1578251825591602001919060010190611886565b5b5090506118af91906118b3565b5090565b6118d591905b808211156118d15760008160009055506001016118b9565b5090565b9056fea165627a7a72305820c3a3afe4ce4a377411e6da3f768cdb73eb3bff611206b2a541f53a408f07c2890029",
  "source": "pragma solidity ^0.5.8;\r\n    import \"./Token.sol\";\r\n\r\n    contract CryptoColors is Token{\r\n    uint time = block.timestamp;\r\n    uint public colorsCount;\r\n    //List of added but not bought colors\r\n    struct FreeColors{\r\n        address owner;\r\n        uint price;\r\n        string color;\r\n        bool bought;\r\n    }\r\n    mapping(uint => FreeColors) public colors;\r\n    address payable public mainPerson;  //contract deployer\r\n    //Someone who wants to collect our colors\r\n    struct Person {\r\n        uint howMuch;\r\n         mapping(uint => string) colors;\r\n    }\r\n    mapping(address => Person) public people;\r\n    //Function that allows main person to add new color to website (it can be done once a day)\r\n    function addColor(string memory _color, uint _price) public {\r\n        require(bytes(_color).length>0);\r\n        require(_price>0);\r\n        require(block.timestamp>=time);\r\n        require(msg.sender == mainPerson);\r\n       colors[colorsCount].price = _price;\r\n       colors[colorsCount].color = _color;\r\n       colors[colorsCount].owner = msg.sender;\r\n       colorsCount++;\r\n       time += 86400;\r\n    }\r\n    function sellColor(uint _id, uint _price) public {\r\n        require(bytes(people[msg.sender].colors[_id]).length>0);\r\n        colors[colorsCount].price = _price;\r\n        colors[colorsCount].color = people[msg.sender].colors[_id];\r\n        colors[colorsCount].owner = msg.sender;\r\n        colorsCount++;\r\n        people[msg.sender].colors[_id] = \"\";\r\n    }\r\n    function buyColor(uint _id) public {\r\n        require(_id<colorsCount);\r\n        require(!colors[_id].bought);\r\n        require(balances[msg.sender]>=colors[_id].price);\r\n        transfer(colors[_id].owner, colors[_id].price);\r\n        people[msg.sender].howMuch++;\r\n        people[msg.sender].colors[people[msg.sender].howMuch]=colors[_id].color;\r\n\r\n        colors[_id].bought = true;\r\n        colors[_id].owner = msg.sender;\r\n\r\n    }\r\n    //How much time left to new color add\r\n    function getTime() public view returns(uint) {\r\n        return time-block.timestamp;\r\n    }\r\n    constructor(\r\n          string memory _name,\r\n          string memory _symbol,\r\n          uint8 _decimals,\r\n          uint _totalSupply)\r\n    Token(_name, _symbol, _decimals, _totalSupply) public {\r\n        mainPerson=msg.sender;\r\n    }\r\n}\r\n",
  "sourcePath": "E:/Crypto-colors/src/contracts/CryptoColors.sol",
  "compiler": {
    "name": "solc",
    "version": "0.5.8+commit.23d335f2.Emscripten.clang"
  },
  "schemaVersion": "3.0.13",
  "updatedAt": "2019-10-15T17:29:28.715Z",
  "devdoc": {
    "methods": {}
  },
  "userdoc": {
    "methods": {}
  }
}